:020000040800F2
:10000000C07F00209D010008932800088B2800086D
:100010008F28000809030008AF2D00080000000029
:10002000000000000000000000000000AF01000818
:100030000D03000800000000B30100083D2900087E
:10004000B7010008B7010008B7010008B7010008B0
:10005000B7010008B7010008B7010008B7010008A0
:10006000B7010008B7010008B7010008B701000890
:10007000B7010008B7010008B7010008B701000880
:10008000B7010008B7010008B7010008B701000870
:10009000B7010008B7010008B7010008B701000860
:1000A000B7010008B7010008B7010008B701000850
:1000B000B7010008B7010008B7010008B701000840
:1000C000B7010008B7010008B7010008B701000830
:1000D000B7010008B7010008B7010008B701000820
:1000E000E1060008B7010008B7010008B7010008E1
:1000F000B7010008B7010008B7010008B701000800
:10010000B7010008B7010008B7010008B7010008EF
:10011000B7010008B7010008B70100085D2A000810
:10012000B7010008B7010008B7010008B7010008CF
:10013000B7010008B7010008B7010008B7010008BF
:10014000B7010008B7010008B7010008B7010008AF
:10015000B7010008B7010008B7010008B70100089F
:10016000B7010008B7010008B7010008B70100088F
:10017000B7010008B7010008B7010008000000003F
:10018000B7010008B7010008DFF80CD000F05CF8F8
:1001900000480047E5570008C07F00200648804718
:1001A00006480047FEE7FEE7FEE7FEE7FEE7FEE75C
:1001B000FEE7FEE7FEE7FEE7F929000889010008EF
:1001C0000649074A0868504343F239021044086060
:1001D000400870470149086070470000CC000020CB
:1001E0006D4EC64140EA01039B0703D009E008C9F0
:1001F000121F08C0042AFAD203E011F8013B00F8EC
:10020000013B521EF9D27047D2B201E000F8012B37
:10021000491EFBD270470022F6E710B513460A4686
:1002200004461946FFF7F0FF204610BD30B50446DE
:100230000020034600E05B1C934203D2E05CCD5CEF
:10024000401BF8D030BD0000064C074D06E0E068CA
:1002500040F0010394E8070098471034AC42F6D30D
:10026000FFF796FF04A1000824A1000800B587B09D
:1002700000BF002001902048006840F002001E49A5
:1002800008600846006800F00200019000BF00BF4F
:100290004FF480400290194803900020049002A976
:1002A000174801F061F900220F21282001F0E3FA3C
:1002B000282001F0D3FA00220A21501E01F0DBFAB7
:1002C00000BF002001900C48006840F008000A4977
:1002D00008600846006800F00800019000BF00BFF9
:1002E0000220029001200390049002A9054801F029
:1002F0003BF907B000BD000030380240000021107B
:1003000000040240000C024000BFFEE77047016895
:1003100001F58051896921F00202016801F58051DF
:100320008A617047016801F58051896941F00202D4
:10033000016801F580518A617047016801F58051BB
:10034000896921F40052016801F580518A61704782
:10035000016801F58051896941F40052016801F595
:1003600080518A617047000008B508490968C908CA
:100370004FF47A72B1FBF2F14143009100BF00BF2C
:1003800000994A1E00920029F9D108BD14000020EE
:1003900038B5044600200090206800F58050806940
:1003A00040F48011206800F580508161206800F5DC
:1003B0008050806900900120FFF7D6FF00992068E7
:1003C00000F58050816138BD30B503461479557908
:1003D00044EA0520084C0C442064D478240695781F
:1003E00044EA0544557844EA0524157844EA0500B2
:1003F000014C0C44606430BD0080024070B5AEB06A
:1004000004460E46002526B14FF40061E160C900A4
:10041000A1600020119012901390149015901690E6
:10042000E06918B94FF48060179001E00020179040
:100430004FF400701890002019901A901B901C9097
:100440001D9040201E9000201F902090219022900F
:10045000239024902590269080202790002028909B
:1004600029902A902B902C902D9020680568714837
:100470000540DDE911010843139908431499084325
:10048000A16808431599084316990843E168084391
:100490001799084318990843199908431A9908436A
:1004A0001B99084305432068056020680568012002
:1004B00000F072FA20680560DDE91C0108431E990E
:1004C00008431F990843209908432199084322991A
:1004D0000843239908432168486020684568012043
:1004E00000F05AFA206845602498216888602598B1
:1004F0002168C860206885694FF641700540DDE9D4
:10050000261040EA014028990843299908432A996E
:1005100008432B9908430543206885612068856955
:10052000012000F039FA20688561DDE92C010843DB
:100530002168C8612068C569012000F02DFA206893
:10054000C561002001904FF00070029000200390E0
:100550004FF400100490002005900690079008903A
:1005600004200990C0050A9040120B9080010C9065
:1005700040120D9080200E9000200F901090206867
:1005800000F5805085692C480540DDE901010843EC
:1005900003990843049908430599084306990843B9
:1005A00007990843089908430999084305432068B7
:1005B00000F580508561206800F580508569012034
:1005C00000F0EAF9206800F580508561DDE90A0154
:1005D00008430C9908430D9908430E9908430F9955
:1005E00040EA81001099084340F40001206800F5BA
:1005F00080500160206800F580500568012000F0FF
:10060000CBF9206800F580500560A069012809D168
:10061000206800F58050C06908490843216801F549
:100620008051C861002120466269FFF7CDFE2EB0DF
:1006300070BD00000F8120FF233FDEF84000010065
:1006400038B50446002000902068006820F00400BF
:10065000216808602068006800900120FFF784FE90
:1006600000982168086038BD38B504460020009025
:100670002068006840F00400216808602068006875
:1006800000900120FFF770FE00982168086038BDD7
:1006900038B50446002000902068006820F008006B
:1006A000216808602068006800900120FFF75CFE68
:1006B00000982168086038BD38B5044600200090D5
:1006C0002068006840F00800216808602068006821
:1006D00000900120FFF748FE00982168086038BDAF
:1006E00010B54FF4804000F031FF10BD10B500226E
:1006F00001B909E0012901D10A0205E0022901D16D
:100700000A0201E04FF44072114B1B6823F440735E
:100710000F4C236023461B681343236023461B684A
:1007200023F0F803236023461B68F82494FAA4F40A
:10073000B4FA84F400FA04F444F002042343044CB1
:10074000236023461B6843F48033236010BD000000
:10075000103C02401C48006800F40070B0B11A4818
:10076000006820F400701849086000BF084600685F
:1007700040F4006008600846006820F400600860EB
:1007800000BF0846006840F4007008600E4800682A
:1007900000F48060B0B10C48006820F480600A4921
:1007A000086000BF0846006840F4805008600846B2
:1007B000006820F48050086000BF0846006840F4DC
:1007C0008060086070470000003C02400A4A1268DE
:1007D00022F44072084B1A601A46126842F0040272
:1007E0001A601A4612684FF4803343EA00231A4312
:1007F000014B1A6070470000103C0240074A126823
:1008000022F44072054B1A601A4612681A601A46A2
:10081000126842F001021A6001707047103C0240F9
:1008200010B50949096821F44071074C216021463F
:10083000096841F4407121602146096841F00101D5
:1008400021600260436010BD103C0240084A1268FB
:1008500022F44072064B1A601A46126842F4807203
:100860001A601A46126842F001021A60018070474D
:10087000103C0240084A126822F44072064B1A608B
:100880001A46126842F400721A601A46126842F060
:1008900001021A6001607047103C02402348006862
:1008A00000F0100040B12248C06940F0100020491B
:1008B000C86110201D4908601C48006800F0200035
:1008C00040B11B48C06940F008001949C8612020A8
:1008D000164908601548006800F0400040B114480F
:1008E000C06940F004001249C86140200F49086007
:1008F0000E48006800F0800040B10D48C06940F02B
:1009000002000B49C8618020084908600748006858
:1009100000F0020040B10648C06940F020000449E0
:10092000C861022001490860704700000C3C024089
:10093000FC36002070B50446002500201449C8612B
:1009400000F02AFF054609E0601C38B124B100F030
:1009500023FF401BA04201D9032070BD0D48006851
:1009600000F480300028EFD10A48006800F0010050
:1009700010B10120074908600648006800F0F20045
:1009800018B1FFF78BFF0120E7E70020E5E7000043
:10099000FC3600200C3C024031B500F0FDFE05465F
:1009A000009C601C00B1641C00BF00F0F5FE401B01
:1009B000A042FAD338BD000070B505460C460026AB
:1009C00000BF95F84500012801D1022070BD01202B
:1009D00085F8450000BF022085F84400002C6DD04A
:1009E0002868066843480640D4E900010843A16826
:1009F0000843E1680843A96808432169084361691D
:100A00000843E9680843A1690843E1690843216A8A
:100A10000843616A0843A16A0843064328680660E0
:100A2000286806680120FFF7B7FF28680660D4E948
:100A30000B010843616B0843A16B0843E16B08435A
:100A4000216C0843616C0843A16C08432968486025
:100A5000286846680120FFF79FFF28684660E06C21
:100A600029688860206D2968C860286886694FF603
:100A700041700640B4F85410A06D40EA0140E16DA9
:100A80000843216E0843616E0843A16E0843064384
:100A900028688661286886690120FFF77DFF28683D
:100AA0008661D4E91B0108432968C8612868C669C2
:100AB0000120FFF771FF2868C66110E0286806680A
:100AC00026F49046D5E902010843064328680660EB
:100AD000286806680120FFF75FFF2868066001208C
:100AE00085F8440000BF002085F8450000BF00BF26
:100AF0006CE700000F8120FF70B504460D461646D6
:100B0000002200BF94F84500012801D1022070BDE9
:100B1000012084F8450000BF022084F84400A5624B
:100B200000221FE005EB42114FF00040086044F244
:100B3000F4504860C2EBC21000EB400006EB8000AE
:100B40008860A069012803D1486820F0004048600F
:100B5000581E904204D905EB42102030C86000E0D6
:100B6000CD60521C9A42DDD3206800F58050C560EC
:100B7000012084F8440000BF002084F8450000BF35
:100B800000BFC4E770B504460D461646002200BFFC
:100B900094F84500012801D1022070BD012084F89D
:100BA000450000BF022084F84400E56200221BE0FB
:100BB00005EB42114FF480100860C2EBC21000EB4D
:100BC000400006EB80008860E06918B9086840F4CE
:100BD00040000860581E904204D905EB42102030B6
:100BE000C86000E0CD60521C9A42E1D3206800F555
:100BF00080500561012084F8440000BF002084F883
:100C0000450000BF00BFC8E70146002200BF91F8C1
:100C10004500012801D102207047012081F84500DC
:100C200000BF022081F84400886A006800F000409C
:100C3000002838D1886A006800F48070F0B1886BB1
:100C4000401C8863886B012801D1886A08638B6A1D
:100C50004B63886A0068C0F30D40021FCA63086BCB
:100C600083680B64886AC0688862012081F8440048
:100C700000BF002081F8450000BFCDE7886A00680A
:100C800000F4007048B1886A086300234B630123B5
:100C90008B63886AC068886205E0886B401C886343
:100CA000886AC0688862012081F8440000BF002083
:100CB00081F8450000BF0120AEE700002DE9FC41AE
:100CC00004460025002001909D4E0027804614B95F
:100CD0000120BDE8FC8194F8440028B9002084F884
:100CE0004500204600F03AF900BF002000909548EA
:100CF000006840F48040934908600846006800F4AA
:100D00008040009000BF00BF8F48006820F40000C2
:100D10008D49086008460068216A08438A490860CE
:100D2000206800F58050006840F00101206800F55F
:100D30008050016000F030FD07460FE000F02CFD10
:100D4000C01BB0F5FA7F09D9032084F8440000BF26
:100D5000002084F8450000BF0320BAE7206800F5B2
:100D60008050006800F001000028E7D12068056984
:100D700025F01C0500F0BAFE06467448864205D3ED
:100D80007348864202D245F008051AE07048864250
:100D900005D36B48864202D245F00C0511E0684845
:100DA000864203D36B48864200D20AE069488642F5
:100DB00005D36948864202D245F0040501E045F0BA
:100DC0001005206805614FF400420021204600F024
:100DD000A7FA48B14FF0010841462046FFF70EFB45
:100DE000012084F8440074E7FF20FFF7D5FD606818
:100DF000002871D000F0D0FC074600BF01AA0121F5
:100E0000204600F053F900F0C7FCC01B41F28831C6
:100E100088420FD94FF0010841462046FFF7EEFA0D
:100E2000012084F8440000BF002084F8450000BF82
:100E300003204EE7019800F004000428DED182026E
:100E40000021204600F06CFA48B14FF001084146FD
:100E50002046FFF7D3FA012084F8440039E700F078
:100E60009BFC074600BF01AA0121204600F01EF9A5
:100E700000F092FCC01B41F2883188420FD94FF03C
:100E8000010841462046FFF7B9FA012084F84400E2
:100E900000BF002084F8450000BF032019E7019837
:100EA00000F020002028DED101AA1021204600F009
:100EB000FDF848B14FF0010841462046FFF79EFA81
:100EC000012084F8440004E7019800F0040020B1F8
:100ED0004FF40061E16002E00DE00021E160019863
:100EE00000F00200022802D10021A1601EE04FF4B0
:100EF0008041A1601AE0E068C0F3CF00A168C1F3AF
:100F00004F0140EA01020021204600F009FA48B1F1
:100F10004FF0010841462046FFF770FA012084F89F
:100F20004400D6E640F6FF70FFF736FD4146204606
:100F3000FFF764FA012084F844000020C9E60000AD
:100F4000008793034438024004380140002D3101EA
:100F5000C00E160200E1F50580D1F00810B586B08C
:100F60000446142101A8FFF756F94B49206888422E
:100F70007ED100BF00BF002000904848006840F0CC
:100F80000070464908600846006800F00070009054
:100F900000BF00BF00BF002000900846006840F07E
:100FA000806008600846006800F08060009000BF24
:100FB00000BF00BF002000900846006840F00060BD
:100FC00008600846006800F00060009000BF00BFA5
:100FD00000BF00BF002000900846006840F00400F9
:100FE00008600846006800F00400009000BF00BFE1
:100FF00000BF002000900846006840F00100086033
:101000000846006800F00100009000BF00BF00BF6C
:10101000002000900846006840F002000860084682
:10102000006800F00200009000BF00BF3220019075
:101030000220029000200390032004900B200590D2
:1010400001A9174800F090FA862001900220029032
:1010500000200390032004900B20059001A9114863
:1010600000F082FA4FF4605001900220029000E0FC
:1010700010E000200390032004900B20059001A9AC
:10108000094800F071FA4FF0A0624FF4C00100204F
:1010900000F08CFD06B010BD0080024030380240E8
:1010A0000008024000000240000402402DE9F04127
:1010B00004460E4617460025A84694F844008228A8
:1010C00002D10220BDE8F081822084F8440020682B
:1010D000056905F01C05208A4FF4784101EAC0201B
:1010E0000543481100EA8610054325F0020545F046
:1010F00001052068056100F04FFB804612E000F01A
:101100004BFBA0EB0800B0F5803F09D3012084F829
:10111000440000BF002084F8450000BF0320D1E751
:101120002068056905F001000028E8D120684069C1
:1011300080B23860012084F844000020C2E710B576
:10114000044600BF94F84500012801D1022010BDDB
:10115000012084F8450000BF022084F844002046A6
:10116000FFF7AAFA2046FFF77FFA2046FFF710F9AB
:101170002046FFF7EDF82046FFF7D4F8012084F869
:10118000440000BF002084F8450000BF00BFDEE738
:1011900010B5044600BF94F84500012801D1022093
:1011A00010BD012084F8450000BF022084F84400EF
:1011B0002046FFF7C2F82046FFF7A9F82046FFF7C0
:1011C0003FFA2046FFF7E4F82046FFF761FA0120D6
:1011D00084F8440000BF002084F8450000BF00BF31
:1011E000DEE770B5024600230025002400BF92F818
:1011F0004500012801D1022070BD012082F8450080
:1012000000BF022082F8440049B9012082F844005E
:1012100000BF002082F8450000BF0120ECE7D06A43
:10122000006800F0004048B1122082F8440000BF7E
:10123000002082F8450000BF0120DDE740F2F450B5
:10124000814208D9B1FBF0F3B1FBF0F600FB1610B8
:1012500010B15B1C00E00123012B13D1D06A0068A0
:1012600040F04050D66A3060C1F30C00D66A70601E
:10127000D06A006840F00040D66A3060D06AC0682A
:10128000D06232E000242EE0D06A006820F04050A6
:10129000D66A30602CB9D06A006840F08050D66AB7
:1012A000306040F2F450D66A7060581EA04210D1EF
:1012B000D06A006840F00050D66A3060581EC0EB1B
:1012C000C01000EB4000A1EB8005C5F30C00D66A0E
:1012D0007060D06A006840F00040D66A3060D06A22
:1012E000C068D062641C9C42CED3106800F5805068
:1012F000406900F0040048B10426106800F58050F1
:1013000046610026106800F580504660012082F892
:10131000440000BF002082F8450000BF00BF6BE71B
:101320002DE9F04104460E4617460025A84694F8DC
:101330004400422802D10220BDE8F081422084F816
:1013400044002068056905F01C05208A4FF47841A7
:1013500001EAC0200543481100EA8610054345F024
:10136000020545F00105B8B22168486120680561B1
:1013700000F012FA804612E000F00EFAA0EB08002E
:10138000B0F5803F09D3012084F8440000BF00205D
:1013900084F8450000BF0320CEE72068056905F00A
:1013A00001000028E8D1012084F844000020C3E7B0
:1013B0002DE9F04104460E460127002500BF2548CF
:1013C000007E012802D10220BDE8F08101202149E0
:1013D000087600BF4CF25030FFF7ACFA0746002FFA
:1013E00031D1401E3060206801280FD1207C616817
:1013F000FFF7ECF94CF25030FFF79CFA074616481D
:10140000006820F00400144908601AE0A56812E0A2
:10141000217C2846FFF76AF94CF25030FFF78AFA30
:1014200007460D48006820F0FA000B4908600FB12C
:10143000356005E06D1CD4E902100844A842E7D8E5
:1014400000BFFFF787F900BF00200249087600BF00
:101450003846B9E7FC360020103C024003480068DB
:1014600040F000400149086000207047103C0240F5
:101470002DE9F04106460F4614461D464FF001087F
:1014800000BF1F48007E012802D10220BDE8F08184
:1014900001201B49087600BF4CF25030FFF74AFA92
:1014A0008046B8F1000F23D126B9E1B23846FFF7E4
:1014B000A5F912E0012E04D1A1B23846FFF7C6F912
:1014C0000BE0022E04D121463846FFF7D3F904E0A1
:1014D00022462B463846FFF7A3F94CF25030FFF76F
:1014E00029FA80460748006820F001000549086095
:1014F00000BF00200249087600BF4046C6E7000052
:10150000FC360020103C02400748006800F0004014
:1015100030B1064804490C3908600548086001E00C
:10152000012070470020FCE7103C02402301674582
:10153000AB89EFCD10B50446B4F5804F02D1024817
:1015400002F056FF10BD0000C805002010B504468B
:1015500004480068204020B1024804602046FFF79C
:10156000E9FF10BD143C0140F8B502460B460025CA
:10157000002400200021DCE0012606FA01F51E68A7
:1015800006EA0504AC4273D15E68022E02D05E68A2
:10159000122E13D1CF0802F1200656F827004E076D
:1015A000F70E0F26BE40B0434F07FF0E1E69BE4028
:1015B0003043CF0802F1200646F8270010684F009C
:1015C0000326BE40B0431E7906F003064F00BE401E
:1015D000304310605E68012E08D05E68022E05D090
:1015E0005E68112E02D05E68122E13D190684F00F3
:1015F0000326BE40B0434F00DE68BE4030439060DB
:10160000506801268E40B0431E79C6F300168E4006
:1016100030435060D0684F000326BE40B0434F00B7
:101620009E68BE403043D0605E6806F08056B6F1DA
:10163000805F7DD100BF00260096404E366846F49C
:1016400080463E4F3E603E46366806F48046009631
:1016500000BF00BF3A4E8F0856F827008E07370F9D
:101660000F26BE40B043374EB24202D1002624E0DE
:101670005EE0354EB24201D101261EE0334EB24249
:1016800001D1022619E0324EB24201D1032614E004
:10169000304EB24201D104260FE02F4EB24201D1AA
:1016A00005260AE02D4EB24201D1062605E02C4E59
:1016B000B24201D1072600E008268F073F0FBE4047
:1016C00030431F4E8F0846F82700264E3068A0434F
:1016D0005E6806F48036B6F5803F00D12043214E87
:1016E0003060361D3068A0435E6806F40036B6F5FB
:1016F000003F00D120431B4E361D3060361D306840
:10170000A0435E6806F48016B6F5801F00D1204322
:10171000144E08363060361D3068A0435E6806F40B
:101720000016B6F5001F00D120430E4E0C36306077
:10173000491C1029FFF420AFF8BD000044380240D6
:101740000838014000000240000402400008024046
:10175000000C024000100240001402400018024039
:10176000001C0240003C0140024613690B400BB1D3
:10177000012000E00020704742694A404261704702
:101780000AB1816101E00B04836170470148006880
:10179000000C7047002004E001480068704700001A
:1017A0001000002002480068401C01490860704792
:1017B0001000002010B50A48006840F40070084985
:1017C00008600846006840F480600860032000F06C
:1017D00091F80F2000F006F800F018F8002010BD76
:1017E000003C024070B50446074800684FF47A7127
:1017F000B0FBF1F5284600F05FFC00222146501EA8
:1018000000F039F8002070BD1400002008B500BFBA
:10181000002000901048006840F480400E490860A5
:101820000846006800F48040009000BF00BF00BF81
:1018300000200090081F006840F08050091F0860D9
:101840000846006800F08050009000BF00BF0720ED
:1018500000F050F808BD00004438024000BF00F01E
:101860001F02012191404209920002F1E022C2F8D8
:10187000001100BF70472DE9F05F80460D46164607
:10188000002701F007F8074639462A46334601F09B
:101890000700C0F1070ABAF1040F02D94FF0040A99
:1018A00001E0C0F1070AD14600F1040ABAF1070FBE
:1018B00002D24FF0000A01E0A0F1030AD4464FF033
:1018C000010A0AFA09FAAAF1010A0AEA020A0AFA5C
:1018D0000CFA4FF0010B0BFA0CFBABF1010B0BEA0E
:1018E000030B4AEA0B042146404600F0DBFFBDE84B
:1018F000F09F000000BF00F00702064B19684FF68A
:10190000FF031940044B0B4343EA0221014B1960CA
:1019100000BF70470CED00E00000FA0570B504460A
:101920000D4600266D48006800F00F00A84209D25D
:101930006A490D700846006800F00F00A84201D007
:10194000012070BD207800F00200022807D1644811
:10195000006820F0F000A168084361490860207821
:1019600000F00100002877D06068012807D15C48AA
:1019700008380068C0F34040B8B90120E1E760686A
:10198000022802D06068032807D15548083800684B
:10199000C0F3406048B90120D3E7514808380068D7
:1019A000C0F3400008B90120CBE74D48006820F0A3
:1019B0000300616808434A490860FFF7EDFE0646E8
:1019C0006068012810D108E0FFF7E6FE801B41F2B5
:1019D0008831884201D90320B3E74148006800F00C
:1019E0000C000428F0D137E06068022810D108E02C
:1019F000FFF7D2FE801B41F28831884201D90320D3
:101A00009FE73748006800F00C000828F0D123E079
:101A10006068032810D108E0FFF7BEFE801B41F28A
:101A20008831884201D903208BE72D48006800F0F7
:101A30000C000C28F0D10FE008E0FFF7ADFE801B92
:101A400041F28831884201D903207AE724480068AE
:101A500000F00C000028F0D12048006800F00F00D2
:101A6000A84209D91D490D700846006800F00F0012
:101A7000A84201D0012064E7207800F00400042887
:101A800007D11748006820F4E050E1680843144982
:101A90000860207800F00800082808D11048006885
:101AA00020F46040216940EAC1000D49086000F05F
:101AB00023F80B49096801F0F001F02292FAA2F232
:101AC000B2FA82F2D140074A515CC8400649086028
:101AD0000F20FFF787FE002033E70000003C0240A4
:101AE00008380240589F0008140000200148006890
:101AF000704700001400002070B500210022002370
:101B00000020274C246804F00C0424B1042C04D0D9
:101B1000082C41D103E0234840E023483EE0204C1C
:101B2000241F246804F03F011D4C241F246804F482
:101B3000800484B11C4CB4FBF1F5194C241F2468BB
:101B400047F6C076344096FAA6F6B6FA86F6F44022
:101B500005FB04F20FE0134CB4FBF1F5104C241F0D
:101B6000246847F6C076344096FAA6F6B6FA86F6AA
:101B7000F44005FB04F20A4C241F246804F44034AA
:101B80004FF4403595FAA5F5B5FA85F5EC40641C9F
:101B90006300B2FBF3F001E0024800BF00BF70BD7C
:101BA000083802400024F40040787D0170B586B00A
:101BB00006460C46154646BB00BF0020009028484C
:101BC000006840F00100264908600846006800F0FF
:101BD0000100009000BF00BF881501900220029014
:101BE0000320049000200390059001A91D48FFF7F1
:101BF000BBFC1B482838006820F0EC6044EA050173
:101C0000084317492839086027E000BF00200090EA
:101C10001348006840F00400114908600846006855
:101C200000F00400009000BF00BF481501900220A2
:101C300002900320049000200390059001A90A4817
:101C4000FFF792FC06482838006820F0784044EA04
:101C5000C501084302492839086006B070BD00007C
:101C600030380240000002400008024038B5044607
:101C70000025207800F00100002874D0F7480068A3
:101C800000F00C0004280DD0F448006800F00C00AF
:101C9000082813D1F148001F006800F48000B0F557
:101CA000800F0BD1ED4808380068C0F34040002891
:101CB00059D06068002856D1012038BD00BF606847
:101CC000B0F5803F08D1E5480838006840F480301E
:101CD000E249083908601EE06068B0F5A02F0DD118
:101CE000DE480838006840F48020DC490839086084
:101CF0000846006840F4803008600CE0D748083897
:101D0000006820F48030D54908390860084600682A
:101D100020F48020086000BF606890B1FFF73CFDB0
:101D2000054606E0FFF738FD401B642801D9032073
:101D3000C3E7CA4808380068C0F340400028F1D023
:101D400011E0FFF729FD054606E0FFF725FD401BE2
:101D5000642801D90320B0E7C04808380068C0F300
:101D600040400028F1D1207800F00200022869D11B
:101D7000BA48006800F00C0058B1B848006800F09C
:101D80000C00082821D1B548001F006800F480002D
:101D9000D8B9B24808380068C0F3400020B1E06804
:101DA000012801D0012088E7AC480838006820F0FD
:101DB000F800F82292FAA2F2B2FA82F22169914076
:101DC0000843A649083908603CE0E06828B30120D0
:101DD000A3490860FFF7E0FC054606E0FFF7DCFCDE
:101DE000401B022801D9032067E79C480838006897
:101DF000C0F340000028F1D098480838006820F06F
:101E0000F800F82292FAA2F2B2FA82F22169914025
:101E1000084392490839086014E00020904908609E
:101E2000FFF7BAFC054606E0FFF7B6FC401B0228A8
:101E300001D9032041E7894808380068C0F3400011
:101E40000028F1D1207800F0080008282CD1606922
:101E5000A8B1012083490860FFF79EFC054606E013
:101E6000FFF79AFC401B022801D9032025E77B4895
:101E70006C300068C0F340000028F1D014E000206E
:101E800078490860FFF788FC054606E0FFF784FC08
:101E9000401B022801D903200FE770486C3000680E
:101EA000C0F340000028F1D1207800F0040004289D
:101EB0007FD100BF0020009068483830006840F0B3
:101EC00080506649383108600846006800F080504C
:101ED000009000BF00BF6448006840F48070624911
:101EE0000860FFF759FC054606E0FFF755FC401B6C
:101EF000022801D90320E0E65B48006800F4807006
:101F00000028F2D000BFA068012808D153486830EB
:101F1000006840F001005149683108601DE0A06888
:101F200005280DD14D486830006840F004004B4949
:101F3000683108600846006840F0010008600CE065
:101F400046486830006820F0010044496831086064
:101F50000846006820F00400086000BFA068A0B137
:101F6000FFF71AFC054608E0FFF716FC401B41F29C
:101F70008831884201D903209FE6384868300068DC
:101F8000C0F340000028EFD013E0FFF705FC054642
:101F900008E0FFF701FC401B41F28831884201D97B
:101FA00003208AE62D4868300068C0F3400000280E
:101FB000EFD1A069F0B32948006800F00C000828B0
:101FC00071D0A069022858D1002025490866FFF782
:101FD000E3FB054606E0FFF7DFFB401B022801D9C3
:101FE00003206AE61D4808380068C0F340600028F6
:101FF000F1D1D4E90701084347F6C07292FAA2F280
:10200000B2FA82F2616A914008430122A16AC2EBEE
:1020100051014FF4403292FAA2F2B2FA82F29140A8
:1020200008434FF0706292FAA2F2B2FA82F2E16AC9
:10203000914000E039E008430849091F0860012089
:1020400007490866FFF7A8FB05460FE0FFF7A4FB6A
:10205000401B02280AD903202FE60000083802405E
:1020600000004742800E4742007000401048006860
:10207000C0F340600028E9D017E000200D49086651
:10208000FFF78AFB054606E0FFF786FB401B0228A8
:1020900001D9032011E606480068C0F3406000281B
:1020A000F2D102E0FFE7012007E6002005E600008C
:1020B000003802400000474270B504462546681EBD
:1020C000B0F1807F01D301200FE0681E4FF0E021C6
:1020D00048610F214FF0FF3000F0E4FB00204FF08B
:1020E000E021886107200861002070BD70477047BB
:1020F00010B50446022084F8390000BF2068006A49
:1021000041F21111084050B92068006A8910084056
:1021100028B92068006820F001002168086000BF2D
:10212000204600F022F8002084F8390000BF84F82F
:10213000380000BF10BD10B504460CB9012010BD19
:1021400094F8390028B9002084F83800204600F0BF
:102150000DF8022084F83900211D206800F086FC6B
:10216000012084F839000020E9E7704710B586B0F7
:10217000044600BF002000907248006840F0010053
:10218000704908600846006800F00100009000BF38
:1021900000BF00BF00200090081F006840F0010051
:1021A000091F08600846006800F00100009000BFA9
:1021B00000BF00BF002000900846006840F0020009
:1021C00008600846006800F00200009000BF00BFF1
:1021D00000BF002000900846006840F0040008603E
:1021E0000846006800F00400009000BF00BF00BF78
:1021F00000200090081D006840F00200091D0860E2
:102200000846006800F00200009000BF00BF00BF59
:1022100000200090081F006840F02000091F08609F
:102220000846006800F02000009000BF00BF00BF1B
:1022300000200090081D006840F48030091D0860EF
:102240000846006800F48030009000BF00BF00BF67
:10225000002000903B481438006840F001003949E4
:10226000143908600846006800F00100009000BFC3
:1022700000BF00BF002000900846006840F0080042
:1022800008600846006800F00800009000BF00BF2A
:1022900000BF002000900846006840F01000086071
:1022A0000846006800F01000009000BF00BF8814CE
:1022B00001900220029003900320049001200590D9
:1022C00001A92148FFF750F94FF400400190022086
:1022D00002900390032004900120059001A91A4860
:1022E000FFF742F90420019002200290039003209E
:1022F00004900220059001A91448FFF735F9012048
:102300000190022002900390032004900220059087
:1023100001A90F48FFF728F901200190022002903F
:10232000039003200490059001A90748FFF71CF9CA
:10233000002204213720FFF79EFA3720FFF78EFA9C
:1023400006B010BD4438024000000240000C0240BC
:10235000001002400146022081F839000868006838
:1023600040F001000A681060012081F83900002067
:10237000704701460868C06840F001000A68D060F4
:102380000868006840F001000A681060002070478B
:102390002DE9F04104460D46002600BF94F83800B0
:1023A000012802D10220BDE8F081012084F8380024
:1023B00000BF022084F839002068866826F077067E
:1023C00026F47F4620688660286850283BD00CDCC5
:1023D000202860D004DC002853D0102865D155E0B7
:1023E00030285DD0402860D141E0602835D0702889
:1023F0000DD0B0F5805F03D0B0F5005F55D115E08A
:102400002068806820F00700216888604EE0D5E9E8
:1024100002136A68206800F0A9FB2068866826F02D
:10242000770646F07706206886603FE0D5E902131C
:102430006A68206800F09AFB2068806840F4804059
:102440002168886032E0EA686968206800F084FCEE
:102450005021206800F096FB28E0EA68696820684F
:1024600000F08FFC6021206800F08CFB1EE0EA6821
:102470006968206800F070FC4021206800F082FB51
:1024800014E00021206800F07DFB0FE0102120689F
:1024900000F078FB0AE02021206800F073FB05E0E3
:1024A0003021206800F06EFB00E000BF00BF01207B
:1024B00084F8390000BF002084F8380000BF00BF56
:1024C00071E7704710B5044620680069C0F340000A
:1024D000D8B12068C068C0F34000B0B16FF002000E
:1024E00021680861012020762068806900F00300DF
:1024F00018B12046FFF7E5FF05E0204600F0ADF8F3
:10250000204600F083F90020207620680069C0F39F
:102510008000D8B12068C068C0F38000B0B16FF00F
:10252000040021680861022020762068806900F498
:10253000407018B12046FFF7C4FF05E0204600F0C8
:102540008CF8204600F062F90020207620680069AF
:10255000C0F3C000D8B12068C068C0F3C000B0B1FB
:102560006FF0080021680861042020762068C069A7
:1025700000F0030018B12046FFF7A3FF05E0204656
:1025800000F06BF8204600F041F90020207620682A
:102590000069C0F30010D8B12068C068C0F3001013
:1025A000B0B16FF010002168086108202076206823
:1025B000C06900F4407018B12046FFF782FF05E0C3
:1025C000204600F04AF8204600F020F9002020764E
:1025D0002068006900F0010058B12068C06800F070
:1025E000010030B16FF0010021680861204600F061
:1025F00035F920680069C0F3C01058B12068C06880
:10260000C0F3C01030B16FF080002168086120462F
:10261000FFF76CFD20680069C0F3801058B1206896
:10262000C068C0F3801030B16FF0400021680861CD
:10263000204600F029F920680069C0F3401058B125
:102640002068C068C0F3401030B16FF020002168EE
:1026500008612046FFF74BFD10BD704770B504467A
:102660000D46164600BF94F83800012801D102201B
:1026700070BD012084F8380000BF022084F83900C2
:1026800036B1042E1BD0082E31D00C2E5ED145E081
:102690002946206800F080FA2068806940F0080030
:1026A000216888612068806920F0040021688861C1
:1026B00020688069296908432168886147E02946C4
:1026C000206800F0A1FA2068806940F40060216869
:1026D00088612068806920F48060216888612068B2
:1026E0008069296940EA0120216888612FE0294634
:1026F000206800F0C5FA2068C06940F00800216831
:10270000C8612068C06920F004002168C8612068A1
:10271000C069296908432168C86118E02946206812
:1027200000F0EAFA2068C06940F400602168C861DE
:102730002068C06920F480602168C8612068C06991
:10274000296940EA01202168C86100E000BF00BF9C
:10275000012084F8390000BF002084F8380000BF51
:1027600000BF85E710B504460CB9012010BD94F8F0
:10277000390028B9002084F83800204600F00CF811
:10278000022084F83900211D206800F06FF9012033
:1027900084F839000020E9E710B586B0044600BF90
:1027A000002000901748006840F0040015490860B8
:1027B0000846006800F00400009000BF00BF00BFA2
:1027C000002000900F481038006840F002000D49CA
:1027D000103908600846006800F00200009000BF51
:1027E00000BF4815019002200290012003900320B1
:1027F00004900220059001A90348FEF7B5FE06B03B
:1028000010BD000040380240000402407047000044
:1028100030B504460D4601222946206800F098F99B
:102820000C492068884203D00B492068884201D1B6
:10283000012000E0002028B12068406C40F40040F6
:10284000216848642068006840F001002168086041
:10285000002030BD000001400004014010B50446D6
:1028600005F0F8FB07480078322190FBF1F201FBFC
:10287000120008B907F0C8F802480078401C014966
:10288000087010BD08000020704700BFFEE700BFC1
:10289000FEE7704702480068C0F30220704700005E
:1028A0000CED00E010B5002807DA0A07140E054AFF
:1028B00000F00F031B1FD45403E00A07130E024A53
:1028C000135410BD18ED00E000E400E000B587B03F
:1028D000144806906FF07F40059013480490134809
:1028E0001349002204ABCDE90021029005AA06A9F4
:1028F000104803F043F90F4803F0B4F90D4890F87D
:102900003300C0F3800018B10A4803F032FA02E045
:10291000084803F0ADF90849064803F0EBF907B0A1
:1029200000BD0000C0A801C8C0A8010139420008CC
:1029300059430008C80500203144000810B5FEF7CF
:1029400031FF10BD00B593B000BF002001902748B3
:10295000006840F08050254908600846006800F093
:102960008050019000BF00BF00BF002001902048B0
:10297000006840F480401E4908600846006800F482
:102980008040019000BF00BF01200290000403902E
:10299000022008904105099105210A913C210B91E3
:1029A00002210C9107210D9102A8FFF75FF90F207A
:1029B0000E9002200F90002010904FF4A050119024
:1029C0004FF48050129005210EA8FEF7A7FFFEF7E6
:1029D000DDFE41F20101884205D10648006840F45D
:1029E00080700449086013B000BD00004038024008
:1029F00000700040003C02401448006840F4700041
:102A0000124908601248006840F00100104908604F
:102A100000200F49083108600D4800680D49084042
:102A20000B4908600C48091D0860081F006820F465
:102A30008020091F0860002005490C3108604FF014
:102A400000600249803908607047000088ED00E0AE
:102A500000380240FFFFF6FE1030002410B5024897
:102A6000FFF730FD10BD00001405002000220268B1
:102A70002C4B98420ED0B0F1804F0BD02A4B98428D
:102A800008D02A4B984205D0294B984202D0294BB6
:102A9000984201D1012300E000231BB122F0700213
:102AA0004B681A431F4B984220D0B0F1804F1DD085
:102AB0001D4B98421AD01D4B984217D01C4B984280
:102AC00014D01C4B984211D01B4B98420ED01B4B7C
:102AD00098420BD01A4B984208D01A4B984205D016
:102AE000194B984202D0194B984201D1012300E0C2
:102AF00000231BB122F44072CB681A4302608B683A
:102B0000C3620B688362074B984202D0094B98421C
:102B100001D1012300E000230BB10B690363012302
:102B2000436170470000014000040040000800407D
:102B3000000C0040000401400040014000440140FE
:102B40000048014000180040001C004000200040E8
:102B500030B50023012404FA01F3046A9C430462A3
:102B6000046A02FA01F52C43046230BD30B50C460C
:102B70000021816821F47F4142EA0325254329434E
:102B8000816030BD0A460021816821F0700142F069
:102B9000070319438160704730B5002400220023E9
:102BA000056A25F001050562026A4368846924F01C
:102BB000700424F003040D682C4322F002028D6897
:102BC0002A430F4DA84202D00E4DA84201D1012543
:102BD00000E000256DB122F00802CD682A4322F002
:102BE000040223F4807323F400734D692B438D6931
:102BF0002B43436084614D684563026230BD000031
:102C0000000001400004014030B5002400220023F0
:102C1000056A25F010050562026A4368846924F498
:102C2000E04424F440740D6844EA052422F02002B4
:102C30008D6842EA0512104DA84202D00F4DA842FD
:102C400001D1012500E0002585B122F08002CD6888
:102C500042EA051222F0400223F4806323F4006369
:102C60004D6943EA85038D6943EA850343608461C6
:102C70004D688563026230BD0000014000040140E0
:102C800030B5002400220023056A25F48075056212
:102C9000026A4368C46924F0700424F003040D68D8
:102CA0002C4322F400728D6842EA0522104DA8429E
:102CB00002D0104DA84201D1012500E0002585B1C8
:102CC00022F40062CD6842EA052222F4806223F4F5
:102CD000805323F400534D6943EA05138D6943EA99
:102CE00005134360C4614D68C563026230BD0000D6
:102CF000000001400004014030B500220023002400
:102D0000056A25F480550562036A4468C26922F4A5
:102D1000E04222F440720D6842EA052223F4005397
:102D20008D6843EA05330A4DA84202D0094DA842F6
:102D300001D1012500E0002525B124F480444D692E
:102D400044EA85144460C2614D680564036230BD85
:102D5000000001400004014030B50B46144600213C
:102D60000022026A056A25F001050562816921F0E9
:102D7000F00141EA041122F00A021A438161026261
:102D800030BD30B50B46144600210022056A25F0FF
:102D9000100505628169026A21F4704141EA04313B
:102DA00022F0A00242EA03128161026230BD00BF3C
:102DB000FEE7704702E008C8121F08C1002AFAD1D6
:102DC00070477047002001E001C1121F002AFBD1AB
:102DD0007047000010B5CA210148FDF71CFA10BD6C
:102DE000D000002070B5044625466868804722461A
:102DF0000249286803F056FC70BD0000E52D00086C
:102E00004FF0E022526942F21073B2FBF3F25043EA
:102E10004FF0E022916900BF4FF0E02292698A1AD8
:102E20008242F9D3704770B505460E4600BF05B91A
:102E300070BD00BF6C6A4CB1607A082806D130685A
:102E4000A16A884202D1284600F07EF900BFEFE770
:102E50007CB5064600BF06B97CBD00BF746A00BFE2
:102E600004B9F9E700BF00202084606B401C70B1FA
:102E7000606B1E303C21B0FBF1F5B5F5803F01D30E
:102E80004FF6FF756584608C08B901206084A06BE3
:102E9000401C80B1A06B1E303C21B0FBF1F5B5F5B4
:102EA000803F01D34FF6FF752583208B08B90120A1
:102EB0002083208BA083E06B401C80B1E06B1E3030
:102EC0003C21B0FBF1F5B5F5803F01D34FF6FF751E
:102ED0006583608B08B901206083608BE083208B61
:102EE000618B884204DB608B002801DD0020208399
:102EF000E07A10B1E06A019010E094F828007F2891
:102F000002DCFF21019108E0C02803DB6FF07F4164
:102F1000019102E04FF6FF71019100BF206B00901C
:102F2000009848B900BFA06A01990840009000BF0E
:102F3000009840F0807000900A21204600F084FC48
:102F40006B4601AA04F12801304602F066FE00BF7C
:102F500082E72DE9F04105466C6A0821204600F021
:102F600073FC002204F12801284600F06FFF074699
:102F7000A07AFF2802DAA07A401CA0724FF4FA76F9
:102F800006F2F310314690FBF1F0E082BDE8F081EB
:102F900070B5184805682AE06C6A34B3607A20B3CB
:102FA000608C68B1208C401C80B22084618C884287
:102FB00006D1284600F012FB284600F025F914E05F
:102FC000E08B40B1E18B481EE083012903D1284604
:102FD00000F074FC09E0A08B38B1A18B481EA083DF
:102FE000012902D1284600F048FC2D6800BF002DC1
:102FF000D2D170BD640000202DE9F04107460C4697
:10300000164600BF1FB96FF00F00BDE8F08100BF8A
:1030100000BF14B96FF00500F7E700BF00BF00BFA5
:1030200000BF00BF00224FF49A71104602F0CCFEA0
:10303000E060E06810B94FF0FF30E6E700BF00BF86
:10304000032E08D0A07A18B9FDF7BAF83C490860F9
:103050003B4800682060E0684068206101202169E9
:1030600008702169487097F82C0021698870002049
:103070002169C870206802F063FB21694860002064
:1030800021690881216948812169C860082E0BD017
:10309000042E09D0072E07D0032E08D1607A052808
:1030A00002D0607A042802D178682169C8600020C3
:1030B00021690861216948612169886100250FE063
:1030C00097F82C00A84205DD062D03D207F12D004C
:1030D000405D00E0002021691C314855681C85B224
:1030E000102DEDD3002505E0002120692C3041553D
:1030F000681C85B2402DF7D3002505E0002120692A
:103100006C304155681C85B2802DF7D30D4821697C
:10311000C1F8EC000020A082002504E02069F03016
:103120004555681C85B2442DF8D30122352120462F
:1031300000F017F93146204600F023F9002064E73B
:1031400024000020638253632DE9FC4105466C6A2C
:1031500000260C21204600F077FB04222146284659
:10316000FFF74AFF064616BB04223221204600F034
:10317000F8F8A06A02F0E4FA80464146204600F0E2
:1031800009F9204600F038F9A28AF03291B2E068DD
:1031900003F08CF80F48CDE9005043230E4A0F4846
:1031A000E168006806F0D3FD204600F019F8A07A27
:1031B000FF2802DAA07A401CA07242F2107707F2D0
:1031C000F3104FF4FA7190FBF1F0E0823046BDE865
:1031D000FC810000709F0008749F00081C00002004
:1031E00010B5044600BF04B910BD00BF00BF00BF4A
:1031F00000BF00BFE06810B1E06802F0BBFF002034
:10320000E060206100BFEFE72DE9FC4105466C6AF4
:1032100000270020A0620621204600F015FB0122B5
:1032200021462846FFF7E8FE0746002F2ED102224E
:103230003921204600F095F8698D204600F0CBF842
:1032400004223721204600F08CF8002606E01F48B3
:10325000815D204600F095F8701CC6B2042EF6D3AE
:10326000204600F0C9F8A28AF03291B2E06803F07B
:103270001DF81748CDE900504323164A1648E16867
:10328000006806F064FD2046FFF7AAFFA07AFF2839
:1032900002DAA07A401CA072A07A062803DAA17A8A
:1032A0000120884000E03C2000EB4001C1EBC01051
:1032B0004FF6FF7101EAC00808F2F3104FF4FA71FB
:1032C00090FBF1F0E0823846BDE8FC811800002058
:1032D000709F0008749F00081C00002070B50D4806
:1032E000056813E06C6A7CB1E08A012803DDE08A9E
:1032F000401EE08208E0E08A012805D1E08A401EF5
:10330000E082284600F0FEFA2D6800BF002DE9D1CA
:1033100070BD00006400002070B505466C6A04B9F9
:1033200070BD607A042809D003DC80B103280FD176
:1033300007E0052803D00A280AD101E000BF00BF3A
:1033400000BF0020A072284600F0DAF806E005E091
:103350000020A0722846FFF757FF00BF00BF00BF44
:10336000DEE710B500BF00BF848A631C8382036957
:10337000F0331955848A631C83820369F0331A552C
:1033800010BD00BF00BF838A5A1C82820269F032DE
:10339000D154704710B500BF00BF0B0E848A621C69
:1033A00082820269F0321355C1F30743848A621C9A
:1033B00082820269F0321355C1F30723848A621CAA
:1033C00082820269F0321355848A621C8282026909
:1033D000F032115510BD10B500BF00BF0B0A848A32
:1033E000621C82820269F0321355848A621C8282D6
:1033F0000269F032115510BD00BF00B9704700BF1F
:1034000000BF00BF00BF00BFFF22838A591C81821A
:103410000169F031CA5406E00022838A591C818276
:103420000169F031CA54818A442903D3017D01F036
:10343000030111B1818A4429EED300BFDEE7000009
:103440002DE9F84305466C6A0421204600F0FCF99A
:10345000032221462846FFF7CFFD074667BB02221D
:1034600039212046FFF77DFF698D2046FFF7B3FF26
:10347000042237212046FFF774FF002606E01D488E
:10348000815D2046FFF77DFF701CC6B2042EF6D387
:103490002046FFF7B1FFA28AF03291B2E06802F055
:1034A00005FF00954323144A1448E168006806F0BC
:1034B00025FC2046FFF794FEA07AFF2802DAA07AC6
:1034C000401CA072A07A0A2805DAA07A4FF47A711B
:1034D00010FB01F001E042F210701FFA80F808F2D0
:1034E000F3104FF4FA7190FBF1F0E0823846BDE83A
:1034F000F883000018000020749F00081C000020C2
:103500002DE9F8430646746A0321204600F09CF931
:10351000032221463046FFF76FFD0746002F3AD1C0
:10352000022239212046FFF71CFF4FF4107120467C
:10353000FFF751FF042232212046FFF712FFA06A55
:1035400002F0FEF8814649462046FFF723FF042299
:1035500037212046FFF705FF002506E01C48415DA6
:103560002046FFF70EFF681CC5B2042DF6D3204697
:10357000FFF742FFA28AF03291B2E06802F096FEB5
:1035800000964323134A1448E168006806F0B6FB2E
:103590002046FFF725FEA07AFF2802DAA07A401C19
:1035A000A072A07A0A2805DAA07A4FF47A7110FB8B
:1035B00001F001E042F210701FFA80F808F2F310F7
:1035C0004FF4FA7190FBF1F0E0823846BDE8F883E1
:1035D00018000020749F00081C0000202DE9FC4109
:1035E00005466C6A1CB96FF00F00BDE8FC81606A8B
:1035F0000190284600F030F907460021204600F0EF
:1036000023F900206062A062E0622063E063A063AF
:10361000606360842084E083A08307B9E5E7072224
:1036200021462846FFF7E8FC064606BB0422362161
:103630002046FFF796FE019802F082F88046414648
:103640002046FFF7A7FE2046FFF7D6FEA28AF032FB
:1036500091B2E06802F02AFE0095432301AA0848CF
:10366000E168006806F04AFB2046FFF7B9FD054B0C
:103670001A461146284602F0D0FA3046B5E7000057
:103680001C000020709F00082DE9F84305466C6A75
:103690000521204600F0D8F8032221462846FFF7EE
:1036A000ABFC07466FBB022239212046FFF759FECB
:1036B000698D2046FFF78FFE042237212046FFF751
:1036C00050FE002606E01D48815D2046FFF759FEAA
:1036D000701CC6B2042EF6D32046FFF78DFEA28AD8
:1036E000F03291B2E06802F0E1FD0095432304F16D
:1036F00024021348E168006806F000FB2046FFF74B
:103700006FFDA07AFF2802DAA07A401CA072A07A8E
:103710000A2805DAA07A4FF4FA6110FB01F001E003
:1037200044F620601FFA80F808F2F3104FF4FA71A3
:1037300090FBF1F0E0823846BDE8F88318000020E5
:103740001C0000202DE9FC4705466C6A012120463B
:1037500000F07AF8032221462846FFF74DFC074681
:10376000002F48D1022239212046FFF7FAFD698D4A
:103770002046FFF730FE042232212046FFF7F1FDFC
:10378000A06A01F0DDFF814649462046FFF702FEB0
:10379000042236212046FFF7E4FD606A01F0D0FFE5
:1037A000814649462046FFF7F5FD04223721204691
:1037B000FFF7D7FD002606E01F48815D2046FFF792
:1037C000E0FD701CC6B2042EF6D32046FFF714FEAF
:1037D000A28AF03291B2E06802F068FD1748CDE9A4
:1037E00000504323164A1748E168006806F0AFFA14
:1037F0002046FFF7F5FCA07AFF2802DAA07A401CE9
:10380000A072A07A062803DAA17A0120884000E09D
:103810003C2000EB4001C1EBC0104FF6FF7101EA04
:10382000C00808F2F3104FF4FA7190FBF1F0E08257
:103830003846BDE8FC87000018000020709F000893
:10384000749F00081C000020427A8A4203D0417213
:1038500000228272C2827047014661B1486A50B14B
:103860004A6A507A0A2802D0507A052801D10120EC
:1038700070470020FCE70020FAE770B505466C6A47
:10388000607A012805D0607A0A2802D0607A05287B
:1038900013D12846FFF7F8FE618B228C881A00EBC3
:1038A000D0710122B2EB610F07DC618B228C881A88
:1038B00000EBD071C1F34F01A18370BD70B5054617
:1038C0006C6A607A012808D0607A0A2805D0607A8C
:1038D000052802D0607A042813D12846FFF7B0FDEE
:1038E000618C228C881A00EBD0710122B2EB610F3F
:1038F00007DC618C228C881A00EBD071C1F34F0178
:10390000E18370BD70B505466C6A607A0C2802D000
:10391000607A062803D12846FFF776FC2BE0607A10
:1039200001280DD1A07A052803DC2846FFF70AFFFD
:1039300021E02846FFF752FE2846FFF765FC1AE013
:10394000607A08280AD1A07A012803DC2846FFF70C
:1039500000FB10E02846FFF77BFA0CE0607A0328B2
:1039600009D1A07A022803DA2846FFF7C9FD02E050
:103970002846FFF749FC70BD0A4600BF00BF11464C
:1039800083681B680B608368196070470246906803
:10399000016831B108689368186000BF00BF08462D
:1039A00070470020FCE7000070B50546002412E0D7
:1039B00004EB4400094901EBC000067D4EB104EB65
:1039C000440001EBC0008068A84202D1204600F00C
:1039D000B7F8601CC4B20A2CEADB70BD1C370020AB
:1039E0002DE9FC5F05460F464FF00A08C1460A263E
:1039F0000024B246A34600200190009000BF5CE086
:103A000004EB44004D4A02EBC000017D0A2E02D1B6
:103A100009B966B24FE000294DD000BF00BF5DB1CB
:103A200004EB4402454B03EBC20228685268904203
:103A300002D160B2BDE8FC9F012928D104EB44000B
:103A40003E4A52F8300078B104EB440002EBC0006B
:103A5000408A58452FDB4FFA84FA04EB440002EB0E
:103A6000C000B0F812B026E004EB4400334A02EB89
:103A7000C000428A019882421DDB4FFA84F804EBB1
:103A800044002E4A02EBC000408A019013E0022954
:103A900011DB04EB4400294A02EBC000428A009883
:103AA000824208DB4FFA84F904EB4400234A02EB1C
:103AB000C000408A0090601CC4B20A2CA0DB07F052
:103AC000020020B90A2E05D107F0010010B94FF00D
:103AD000FF30AFE70A2E01DAF4B21AE0B9F10A0FAB
:103AE00003DA09F0FF0400BF0EE0B8F10A0F02DAB2
:103AF00008F0FF0408E0BAF10A0F02DA0AF0FF0446
:103B000002E04FF0FF3095E700BF00BF204600F015
:103B100017F800BF00BF00BF00BF35B104EB440180
:103B2000064A02EBC10128684860002004EB44010A
:103B3000024A02EBC101488260B27BE71C370020D9
:103B400010B5044604EB44000C4951F8300060B154
:103B500004EB4401094A52F8310002F00BFB00204B
:103B600004EB4401054A42F83100002004EB440113
:103B7000024A02EBC101087510BD00001C3700208D
:103B8000FEB506460D4600BF05B9FEBD00BF746810
:103B90002088B0F5807F08D12079062805D160798A
:103BA000042802D16088082803D0304602F0E2FAE7
:103BB000EBE7D4F80E000290A0690190686808B99C
:103BC000002707E001986968884201D1012000E0E0
:103BD000002007460FB1012000E00220034604F157
:103BE000080202A9284600F0C7FAE088B0F5807FF5
:103BF00003D0B0F5007F2BD125E017B3022001F0F0
:103C0000ACFDE080D4F80E00A0616868C4F80E0036
:103C100000BF00BFA068C4F81200A089E082D5F8F8
:103C20002D00A060B5F83100A08140F6060004F137
:103C3000120304F1080231460090284600F060FBB0
:103C400000E000BF05E002A92846FFF7ECF800E01D
:103C500000BF00BF304602F08DFA00BF95E70000BC
:103C60002DE9FE43054689461446A04600BF00BF25
:103C700000BF00BF00BF00BF2946206800F0B4FEAF
:103C800008B1414F75E0207800F0F000E02815D130
:103C900001208DF8040000208DF805005E208DF8CD
:103CA0000600607800F07F008DF80700A0788DF89E
:103CB0000800E0788DF8090001AF59E02068A96894
:103CC0000840D5E90112114088420ED0208880B208
:103CD0004FF6A961884208D0E86810B105F10C08D8
:103CE00003E06FF00300BDE8FE832848007800EB96
:103CF0004000274901EBC000007D022812DB234968
:103D0000097801EB4101224A02EBC101D8F8000019
:103D10004968884206D11D4802784946284600F085
:103D200039F8E0E700261BE006EB4600184901EBF6
:103D3000C000007D022811DB06EB4601144A02EBAD
:103D4000C101D8F800004968884207D10F490E70B8
:103D5000F2B24946284600F01DF8C4E7701C46B28E
:103D60000A2EE1DB4A464146284600F06FF8BAE7E2
:103D700000BF4FF400603B4605F12D02494600901C
:103D8000284600F0BDFAAEE7789F00082800002022
:103D90001C370020F8B505460E46144600BF00BF8C
:103DA00004EB4400284901EBC000007D022839D112
:103DB00004EB440001EBC000408AB0F58E7F11DDBA
:103DC00004EB44000A4602EBC000011D284600F047
:103DD00043F938BB032004EB44011B4A02EBC10149
:103DE00008751FE004EB4400174901EBC000408A4E
:103DF000B0F5877F16DB04EB44000B4603EBC000F5
:103E000000F10C0204EB440003EBC000011D284646
:103E100000F02EF930B9032004EB44010A4A02EB0A
:103E2000C10108754FF40060009004EB440006499E
:103E300001EBC00000F10C0305F12D0231462846CC
:103E400000F05EFAF8BD00001C3700202DE9FC5F91
:103E500080460E46174608F12D094FF0FF300190BD
:103E60004FF0000A4146306800F0BEFD38B93078A6
:103E700000F0F000E02802D00EB1306818B96FF001
:103E80000F00BDE8FC9F424601213046FFF7A8FD28
:103E90000446002C01DA2046F3E704EB44004649CF
:103EA00001EBC000007D78B94FF0010A012004EB5E
:103EB0004401414A02EBC101087504EB440011467C
:103EC00001EBC000C0F8088000BF00BFBAF1000FCE
:103ED00000D13FB93146404600F0BEF801900FB91D
:103EE0000198CEE700BF00BF04EB4400324901EB6C
:103EF000C000007D022812DB30490C704FF40060D6
:103F0000009004EB44002C4901EBC00000F10C03CD
:103F10004A463946404600F0F3F9019049E004EB87
:103F20004400254901EBC000007D012841D14FF03C
:103F3000000B3D4608E000BF00BF287B012802D0EF
:103F40004FF0010B02E02D68002DF4D100BFBBF152
:103F5000000F10D029890022022001F035FF05460C
:103F60006DB13946284602F05CF840B1284602F0AF
:103F700001F9002503E03D46284602F0D7F9A5B136
:103F800004EB44000C4951F8300030B104EB44011B
:103F9000094A52F8310002F0EDF804EB44000649FA
:103FA00041F830500020019002E04FF0FF300190C6
:103FB00000BF019865E700001C37002028000020A2
:103FC0002DE9FC5F81460E4617469846DDE90CABAD
:103FD0000020019000BF00BF00221C21022001F040
:103FE000F3FE05461DB94FF0FF30BDE8FC9F00BF52
:103FF00000BF6C680F9801F0B0FBE08000BF00BF0D
:10400000D8F80000A060B8F80400A081DBF8000038
:10401000C4F81200BBF80400E082DAF80000C4F82B
:104020000E000E980068A0614FF480702080082078
:104030006080062020710420607140F606003B4637
:10404000324629460090484600F05AF9284602F0C8
:1040500091F800250198C8E770B504460D46034A5B
:104060002946204600F004F870BD0000789F000843
:104070007FB504460D4616460121074A201D04F16E
:104080002D038DE825000391324619462046FFF79F
:1040900097FF04B070BD00007E9F000870B500243B
:1040A00065E004EB4400334901EBC000057D002DC1
:1040B0005BD004EB440001EBC000408A401C04EBE1
:1040C00044012C4A02EBC101488204EB4400114632
:1040D00001EBC000408AB0F5967F0DDA04EB440096
:1040E00001EBC000007D01280AD104EB440001EB84
:1040F000C000408A052803DB2046FFF721FD34E09D
:1041000004EB44001B4901EBC000007D032807D1EC
:10411000042004EB4401174A02EBC101087524E0B6
:1041200004EB4400134901EBC000007D042807D1D3
:10413000022004EB44010F4A02EBC101087514E0B0
:1041400004EB44000B4901EBC000007D01280CD1B9
:1041500004EB44020B4603EBC202111D04EB4402C4
:1041600003EBC2029068FFF777FF601CC4B20A2C11
:1041700097DB70BD1C3700202DE9F84306460D463D
:104180001746984600BF00BF5DB1286848B1314668
:10419000286800F029FC20B9287800F0F000E02819
:1041A00003D16FF00F00BDE8F88332464146284640
:1041B000FFF716FC0446002C01DA2046F3E7022044
:1041C00004EB44011B4A02EBC101087504EB4400F7
:1041D000114601EBC000866004EB440001EBC00017
:1041E0003968C160B9880182002004EB440102EB08
:1041F000C101488204EB4400114651F83000B0B1CF
:1042000004EB440051F83090002004EB440142F8E4
:1042100031004FF400603B4606F12D024946009004
:10422000304600F06DF8484601F0A4FF00BF0020C2
:10423000B9E700001C3700202DE9F04104460F4685
:104240000E2660890E2800DC53E06568B5F80C8006
:10425000287800F00100B0B12878012809D16878E9
:1042600088B9A8785E280ED1607B40F0100060739A
:1042700009E0062221492846FBF7D8FF18B9607BE0
:1042800040F008006073B8F1080F03D0B8F5C16FB3
:104290002AD114E097F8330000F0080000B928E0B4
:1042A0006089B04205DB704201B2204601F0A5FFF3
:1042B00000B11EE03946204600F09EFC15E097F85C
:1042C000330000F0080000B913E06089B04205DB5C
:1042D000704201B2204601F090FF00B109E039467A
:1042E0002046FFF74DFC00E003E000BF0020BDE8E2
:1042F000F081204601F03EFF0020F8E7789F00089B
:104300002DE9F04706460D4617469846DDF8209001
:10431000484601F022FA82460E21284601F06DFF40
:1043200000B115E06C68A4F80CA0D8F8000020607B
:10433000B8F80400A0803868C4F80600B888608126
:1043400000BF00BF29463046B2699047BDE8F087FC
:104350006FF00100FAE7000010B5044600BF00BF8F
:10436000732084F8340074213520015504486061BD
:104370000448A061204601F08FF8002010BD000025
:10438000613C00085956000870B50446204601F00B
:10439000E3F8064606B970BD2146304622699047CB
:1043A00005461DB1304601F0E5FE002600BFF2E7EC
:1043B0003EB5044694F83300C0F3800080B10A484B
:1043C00002906FF07F400190084800906B4601AA70
:1043D00002A9204601F021FC204601F0CAFC02E0BF
:1043E000204601F045FC3EBDC0A801C8C0A801019F
:1043F00038B50446002000906A4612210B48FCF7AD
:1044000055FE009800F4005078B16A461021074824
:10441000FCF74CFE009800F0010018B1204601F0B6
:1044200081FC02E0204601F068FC38BDA036002087
:104430001CB5044600200190009094F83300C0F3AE
:104440008000002854D02E484068A0B34FF480521A
:1044500000212B48FCF764FFFDF79EF9019000BF97
:104460006A4601212648FCF721FEFDF795F90199DE
:10447000401AB0F57A7F00D924E0009800F02000BF
:104480002028EDD16A4610211D48FCF70FFE009848
:1044900000F0040020B14FF400611948C16002E04F
:1044A00000211748C160009800F0020020B10021EF
:1044B0001348816014E004E04FF4804110488160AB
:1044C0000EE000BF0E48C068C0F3CF000C498968F9
:1044D000C1F34F0140EA010200210948FCF720FF27
:1044E00000210748FCF768FA0548FCF728FE02E0BF
:1044F0000348FCF74DFE2046FFF75AFF1CBD0000A5
:10450000A036002010B501241A48B0F8C80080B3C6
:1045100018480078552816D116484078AA2812D194
:104520001448B0F8C820811C1348FBF75BFE124802
:10453000407810FB00F01049C1F80A000F210E4826
:1045400005F0B0FC0024FEF745FC0C200B49A1F857
:10455000C80055200870AA2048700846B0F8C82046
:104560000549801CFBF73EFE0448B0F8C81005F072
:1045700063FC10BDD0000020640200209A010020DE
:1045800070B505460C4622460321284600F0C8F8BF
:1045900070BD00002DE9FF5F05468A465F48D0F8F0
:1045A00008B09BF800000007860E142E00DAACE07D
:1045B0006889042800D2A8E06868047814B1082C3F
:1045C0007ED100E09CE0DFF8549109F114095348D2
:1045D000007D00F0F000E02800D19AE04F4A116819
:1045E000506900F001FA00B193E02889082800D250
:1045F0008BE0284600F0D7F820B1284601F0BAFD3C
:10460000BDE8FF9F06F10E0001B2284601F0F5FD5E
:1046100088B32889304481B20022022001F0D4FB03
:10462000074607B975E0798906F10800814203D28F
:10463000384601F09FFD6CE0324659467868FBF73A
:10464000D1FD704201B2384601F0D7FD28B100BF5C
:1046500000BF384601F08EFD5BE02946384601F088
:10466000E0FC18B1384601F085FD52E0284601F023
:1046700081FD3D460BE0FFE706F10E00404201B22E
:10468000284601F0BAFD10B100BF00BF41E0D5F8E7
:1046900004803146284601F0B0FDF0B96F68D9F8C2
:1046A0000000F8601D4800693861002088F80000AB
:1046B000A8F80200FF20387200207881012000E075
:1046C0000CE00021FF230A46CDE9010A009149468A
:1046D000284600F087FB039000BF11E0032C0ED0AA
:1046E0000B2C0CD00C2C0AD0042C08D0052C06D096
:1046F0000D2C04D00E2C02D0112C00D000BF00BF16
:1047000000BF284601F036FD7AE7284601F032FD69
:1047100076E7284601F02EFD00BF71E70C38002037
:104720002DE9FF47074688469146002224210120B3
:1047300001F04AFB05460DB9BDE8FF8700BF00BF89
:10474000D7F804A06C6884F8008084F801900020F9
:10475000A080E08079686A6802F108001C22FBF7FB
:1047600041FDDAF80C00039003A800F08BFC06462C
:104770005EB10020608001200021FF2303AACDE963
:1047800001060091284600F02DFB284601F0F2FCBE
:1047900000BFD1E770B505460C4622460B212846DE
:1047A000FFF7BEFF70BDF0B5064600240027354672
:1047B00017E06989686800F0E6FF0444A0B200EBE6
:1047C0001444688900EBD0714910A0EB410139B164
:1047D000C7F10100C7B2E0B2C4F3072141EA0024E7
:1047E0002D68002DE5D127B1E0B2C4F3072141EADD
:1047F0000024E04380B2F0BD1FB56C486C490860EE
:104800000020486000216A4881604FF6FF71C16056
:1048100000210161FDF78FFC4FF400500090002053
:1048200001900290039069466148FDF7B1FD0020B8
:104830005F49096848625E48FDF78CFD4FF0804093
:104840005C4908600020486000215A4881604FF6AA
:10485000FF71C16000210161FDF76DFC4FF4005054
:104860000090002001900290039069465148FDF7A6
:104870008FFD00204F49096848624E48FDF76AFDE8
:104880004D484E4908600020486000214B48816037
:104890004FF6FF71C16000210161FDF74CFC4FF440
:1048A0000050009000200190029003906946434818
:1048B000FDF76EFD00204149096848623F48FDF759
:1048C00049FD3F483F4908600020486000213D48BD
:1048D00081604FF6FF71C16000210161FDF72BFC83
:1048E0004FF4005000900020019002900390694620
:1048F0003448FDF74DFD00203249096848623148CF
:10490000FDF728FD3048314908600020486000214B
:104910002E4881604FF6FF71C16000210161FDF7F3
:104920000AFC4FF400500090002001900290039088
:1049300069462648FDF72CFD002024490968486295
:104940002248FDF707FD22482249086022480068F6
:1049500040084FF47A71B0FBF1F0401E1D494860E9
:1049600000211C4881606421C16000210161FDF7C4
:10497000E2FB1848FDF7FDFC184819490860164885
:10498000006840081749B0FBF1F0401E1449486028
:104990000021134881604FF6FF71C1600021016161
:1049A000FDF7C9FB0E48FDF7D5FC1FBD0000014017
:1049B000E8030020240400200004004060040020DC
:1049C000000800409C04002000040140D80400209E
:1049D0000014004014050020140000200040014095
:1049E000500500208096980018B502460092D043EA
:1049F00000B10AB9012018BD91F8330000F002009F
:104A000008B90020F7E74868904201D10020F2E79A
:104A100000988B681840D1E901342340984208D1AE
:104A2000886822EA00008C68E343984201D10120A3
:104A3000E1E70020DFE700002DE9F74F8CB00446E6
:104A40000F46798DA1F11400C11700EB5171C1F32C
:104A5000CF010991142005904FF0000B60680A9077
:104A6000DDF8288000BF98F8000000F00F00142146
:104A7000B1EB800F04D06FF005000FB0BDE8F08FF0
:104A800000BFB8F8060000F068FE8246CAF30C00CA
:104A9000079000BF0AF4005010B16FF00500ECE77A
:104AA00000BF208914381FFA80F99AE00998B9EB01
:104AB000C00F01DA484601E00998C00080B20890B2
:104AC00000221421022001F07FF9054605B98EE08D
:104AD00000BF00BF142268680A99FBF783FBD5F872
:104AE00004800898049045E061890598081A80B20E
:104AF0000390DDE90310884201DA049800E003988E
:104B00008346BBF1000F03D100200590246831E0FB
:104B100000F000FB06461EB9284601F02BFB66E0BC
:104B2000616805980844334602225946CDE9000BD6
:104B3000042001F00FFA0B900B9830B9304600F0CA
:104B4000EEFA284601F016FB51E0204601F0EEFB9C
:104B500074612848306128460B9901F032FA0498B4
:104B6000A0EB0B0080B20490049810B100200590D7
:104B7000246800BF04980028B6D10598584480B234
:104B80000590788D1438484501DB012000E00020B5
:104B900006900798C0F30C0A069808B94AF4005A20
:104BA000504600F0DAFDA8F806000899143188B2E2
:104BB00000F0D3FDA8F802000020A8F80A007B69E5
:104BC000294638460E9A9847284601F0D3FA0898A5
:104BD000A9EB00001FFA80F909990798084480B2F0
:104BE0000790B9F1000F7FF461AF002045E74FF067
:104BF000FF3042E7795400082DE9F05F06460F4682
:104C00004FF0010A756828780421B1EB201F05D008
:104C1000304601F0AFFA0020BDE8F09F287800F0A0
:104C20000F084FF6FF7000EA8808688800F095FDCD
:104C300081463189494503DD4946304601F036FB5E
:104C40007089404505DB3089484502DBB8F1140F17
:104C500004DA304601F08EFA0020DDE728695F496A
:104C60004861E86808610846007D00F0F000E0282F
:104C70000AD197F8330000F0010018B1786808B144
:104C80003C4628E0002426E04FF0010B3C4600BFE4
:104C900094F8330000F0010068B1606858B14F48E3
:104CA00040696168884205D04C4948692146FFF750
:104CB0009BFE00B10DE0BBF1000F04D04FF0000BE4
:104CC0004748046800E02468BC4200D12468002CF6
:104CD000DED100BF00BF64B9687A112809D105EBA5
:104CE00008004188B1F5884F02D13C464FF0000AD8
:104CF00000BFBAF1000F13D03848006980B13749BE
:104D000008693946FFF770FE28B93448007C00F086
:104D1000F000E02804D1304601F02CFA00207BE7B7
:104D200024B9304601F026FA002075E7E8884FF6EE
:104D30003F71084038B1304600F0D4F806460EB94D
:104D4000002069E775682548046047608560287819
:104D50000007800E21498881C8F1000001B2304669
:104D600001F04BFA687A01280DD0062806D01128E8
:104D70000ED13946304604F0BBFE23E039463046BA
:104D800002F01EFA1EE039463046FFF703FC19E038
:104D9000124948692146FFF727FE78B90F48007D80
:104DA00000F0F000E02809D00FFA88F1304601F059
:104DB0002DFA756002213046FFF7E2FB304601F024
:104DC000D9F900BF00BF002004490860486088602E
:104DD00088810861486100BF1EE700000C38002090
:104DE000640000202DE9FE4F07460C461546984604
:104DF000DDE90C9A0E9EA34625B10CB1206808B9D6
:104E000006F1040B43462A4659463846CDE9009A36
:104E1000029600F003F8BDE8FE8F00002DE9F84F80
:104E200005460F4690469A46DDF828B00C9E00BF16
:104E300000BFB8F1000F3AD04FF0140914212846F2
:104E400001F0DBF918B16FF00100BDE8F88F6C6874
:104E500000BF00BF84F808A00B986072D8F800006B
:104E6000206148464FEAE97109EB9171C1F387016E
:104E700041F04001217084F801B0288900F06DFCF8
:104E800060800020E0801548008800F066FCA0806B
:104E900012480088401C114908801FB9104800685A
:104EA000E06001E03868E0600020608103E06C6849
:104EB00020690090E846708D48B12889718D88423C
:104EC00005DD424631462846FFF7B6FDBDE74246BE
:104ED0002946304673699847B7E700002A0000204A
:104EE000709F00082DE9F84F8146D9F804502878C2
:104EF00000F00F001421B1EB800F00D0B9E0E8887A
:104F000000F02BFCC0F30C004FF6FF7101EAC00B60
:104F1000688800F022FC297801F00F01A0EB8100E5
:104F200080B20090484601F073F806465348018865
:104F300088190A280ADD3146284600F03FFA20B1D8
:104F40004E48008830440A2800DD92E04C4804684E
:104F500011E06069E968884209D1A069296988423D
:104F600005D1A089A988884201D1012000E0002054
:104F700000B102E02468002CEBD100BF34B9314607
:104F8000284600F0A1F9044694B972E0E88800F0E0
:104F9000E4FBC0F30C0058B9E08900F0DEFBC0F37D
:104FA0000C0028B11422294604F10800FBF71AF975
:104FB00032480088304431490880A87900F0200048
:104FC00030B9A07F40F00100A07700985844A0833A
:104FD0004946204600F0ACF8002848D0A08B143099
:104FE000A08360684068D0F800806068456814223B
:104FF00004F108012846FBF7F5F8A08B00F0ADFBA3
:1050000068800020E8806881D4F804900CE0D8F82B
:1050100004A06FF01301404601F0EFF84146484606
:1050200000F0CFFFDAF80080B8F1000FEFD114489C
:105030000068844201D100270AE01148076804E0B3
:105040003868A04200D102E03F68002FF8D100BFCD
:105050003946204600F022F9484600F0D9FF0749BA
:105060000988081A054908804846BDE8F88F0020DD
:10507000FBE7484601F07EF80020F6E7300000200C
:105080002C00002010B502462048016821E091F86C
:10509000330000F00100D8B191F83300C0F3800074
:1050A000B0B14868A0B110688B681840D1E90134EC
:1050B0002340984201D1084610BD91F8330000F01A
:1050C000020028B91068CB68984201D10846F3E77E
:1050D00009680029DBD10E48006888B10C480068D7
:1050E00090F8330000F0010050B10948006890F8D2
:1050F0003300C0F3800018B105480068406808B963
:105100000020D9E702480068D6E7000064000020CC
:105110006800002010B5052000F01EFD10BD10B580
:10512000044600BF00BF2146052000F0DBFC10BD97
:105130002DE9FC5F80460E4600254FF0010BD6F8A6
:1051400004A0BAF8020000F008FB9AF8001001F081
:105150000F01A0EB810080B20090BAF8060000F0C9
:10516000FCFAC0F30C004FF6FF7101EAC000019099
:1051700000BF00BF7468002020600198A080DDE9B6
:1051800000100844E080D8F804902AE0D9F80470B0
:10519000A088B988884210DAC4F8009055B1A08878
:1051A000E988884203DBE088B988884200DD66E050
:1051B0002E6001E0C8F8046016E0A088B988884233
:1051C00000D15CE0A088F988884200DA57E02DB170
:1051D000E888B988884201D04FF0000BD7F80090DA
:1051E0003D46B9F1000FD1D100BFB9F1000F0ED18A
:1051F0004DB100BF00BF2E60E888A188884206D06C
:105200004FF0000B03E000BF00BFC8F8046098F83F
:105210001E0000F0010078B3BBF1000F29D0D8F8D0
:10522000040020B1D8F804004068808810B14FF025
:10523000000B1EE02546D4F800900BE0D9F804409E
:10524000E888A188884202D04FF0000B05E025468F
:10525000D4F80090B9F1000FF0D100BFBBF1000FFE
:1052600007D000BF00BF00BF00BF00BF00BF00BF2E
:1052700000BF5846BDE8FC9FFFE70020FAE7304634
:1052800000F0C6FE04490988081A03490880304620
:1052900000F070FF0020EDE73000002070B50446FC
:1052A0000D4608480068A04203D1064920680860FE
:1052B00003E000BF00BF206828602146042000F002
:1052C00011FC70BD2C00002070B505460E46042070
:1052D00000F042FC044664B93146284600F06EF8FE
:1052E000B04203DB042000F037FC04460CB9002078
:1052F00070BD20212046FAF78EFF0320E077064894
:1053000000682060044804601422294604F1080063
:10531000FAF768FF2046EBE72C0000202DE9F04764
:1053200004468946002600BF00BFB9F1000F01D036
:1053300000BF00BF6068D0F80480B8F80400C0B9AE
:105340006568D8F800006060142204F108016868FC
:10535000FAF748FF01212846FFF71CFA284600F01B
:1053600057FE074600BF00BFF01986B2284600F07E
:1053700001FF656810E0D5F80480AA46D8F800500F
:10538000504600F045FE074600BF00BFF01986B248
:10539000504600F0EFFE00BF002DECD149462046FC
:1053A000FFF77CFF00BF00BF03480088801B024955
:1053B00008803046BDE8F087300000202DE9F84F26
:1053C00005468946002700BF0026B246002000900F
:1053D00083461B48046821E06069E968884207D178
:1053E000A0692969884203D1A089A988884201D08F
:1053F000012000E0002068B10BF1010B1EB9264628
:10540000CDF800A006E0E07FF17F884202DC26466E
:10541000CDF800A0206800B1A2462468002CDBD1A2
:105420002EB130460099FFF779FF804647444F453B
:1054300002DABBF1010FC7DC3846BDE8F88F000087
:105440002C00002070B500250A4804680FE0E07FBA
:10545000002805DDE07F401EE0772546246806E051
:105460002646246829463046FFF758FF00BF002C27
:10547000EDD170BD2C00002070B505462C4600BF54
:1054800000BF00BF00BF606910B1606900F072FE2C
:105490002046FFF744FE70BD7CB50446002526A1DA
:1054A00003C9CDE900012648264908600846C0F82E
:1054B00014D0002048604FF4804122488160C91018
:1054C000C1600903016200218161C161052101827E
:1054D000FBF7F4FB28B994F8330040F0040084F89B
:1054E00033000423184A19491648FBF74BFB0423E1
:1054F000174A18491348FBF7FFFA062084F82C00D6
:10550000022084F82D0000212E2001552F20015566
:1055100030200155312001553220015540F2DC5038
:10552000608594F8330040F00A0084F833000548A1
:10553000FBF705FE7CBD000002000000000000003B
:1055400000800240A0360020D01E002080060020EF
:1055500000070020000600202DE9F84F4FF000085A
:105560000024A3460027002000903A48FBF74CFB9C
:1055700010B10020BDE8F88F3648808F1FFA80F9FF
:105580003448D0F840A0B9F1000F05DD03224946A8
:10559000042000F019FC8046B8F1000F2FD02D48F0
:1055A000066B0024454628E06F894FF0000B15E09C
:1055B00040F2F4531A1B0AEB04016B6803EB0B0077
:1055C000FAF710FEF668D6F808A040F2F450001B77
:1055D0003F1A40F2F450001B83440024381940F273
:1055E000F4518842E4D80AEB04016A6802EB0B002C
:1055F0003A46FAF7F7FD3C442D68002DD4D1154802
:10560000066B0020009007E0306840F000403060FA
:10561000F6680098401C00900E48816B009881420B
:10562000F2D800210B488163006800F58050406982
:1056300000F0800058B180210648006800F58050D5
:10564000416100210348006800F5805081604046B8
:1056500090E70000A03600202DE9F84F8B46374830
:10566000C06A806800904FF0000900240026A2461E
:105670003248D0F82C8000BF5D463FE0D8F80000EB
:1056800000F0004010B16FF007073FE06E894FF067
:10569000000A23E040F2F4531A1B6B6803EB0A0183
:1056A000009B1819FAF79EFDD8F80C80D8F8000076
:1056B00000F0004010B16FF0070727E0D8F80800AD
:1056C000009040F2F450001B361A40F2F450001BD8
:1056D000824440F2F450001B81440024301940F20F
:1056E000F4518842D6D86A6802EB0A01009A101970
:1056F0003246FAF777FD3444B1442D68002DBDD110
:1057000049460E48FBF76DFD002700BF0B480068B7
:1057100000F58050406900F0200058B12021074872
:10572000006800F58050416100210448006800F5E0
:10573000805041603846BDE8F88F0000A036002058
:105740000146080601F47F4240EA022001F47F028C
:1057500040EA122040EA1160704701460806000C3A
:1057600040EA1120704710B500BF00BF00F080F87C
:1057700000F0CCF900F03EFA04F0B8F901F01EFD9B
:1057800000F0FCFF10BDF8B505460A462B46002088
:105790000090002103F0010636B1002A04DD13F861
:1057A000010B8DF80100521E1C4603E034F8027B09
:1057B0003944921E012AF9DC002A02DD20788DF896
:1057C0000000BDF80000014488B200EB114188B22E
:1057D00000EB114126B1C8B2C1F3072747EA002107
:1057E00088B2F8BDFBF7E6FFFDF7ACF8FAF73EFD2F
:1057F000FFF7B9FFFDF76AF801F0CAFA0648FDF7AE
:10580000D8FA0F21054800F06BFE00F08BFE01E096
:1058100000F0ACFEFCE70000C80500206402002098
:1058200070B5054605B970BD00BF00BF00BF00BF21
:105830000C480068854203D30B480068854200D3BA
:10584000F1E7A5F1080400BF00BF00202071074860
:105850000068844201D205480460204600F0ACFD97
:1058600000BFE0E734000020380000203C000020AA
:1058700000BF00BF114921F00301114A1160114618
:1058800008684FF4205101800021418001711146C8
:10589000096801F520510B4A11600121126811714C
:1058A0004FF42051074A12681180064A126851804D
:1058B00003490968044A1160704700002738002036
:1058C00034000020380000203C000020F0B50246E3
:1058D0000AB90020F0BDD01C20F0030082B20C2ACF
:1058E00000D20C22B2F5205F01D90020F2E72F4848
:1058F00000882F4E3688801B83B250E02C48006809
:10590000C1180879002847D10E8803F10800301A21
:10591000904241D30E8803F10800361A02F11400B8
:10592000864218D303F10800104485B2204800686D
:105930004419002020710888208063800D80012098
:1059400008712088B0F5205F07D02088184E36688F
:105950003044458001E0012008711448006881420C
:1059600011D1124E306803E00688114F3F68F019DC
:1059700006791EB10F4E3668B042F5D10B4E30603D
:1059800000BF00BF00BF00BF00BF00BF00BF00BF1F
:1059900000BF01F108009DE705480068C35AC2F541
:1059A00020509842AAD8002094E700003C00002034
:1059B00034000020380000202DE9F04106460A4658
:1059C000D01C20F0030082B20C2A00D20C22B2F5C7
:1059D000205F02D90020BDE8F08100BF00BF3E4833
:1059E0000068864203D33D480068864201D33046B2
:1059F000F1E7A6F1080438480088201A85B220880B
:105A0000401B083887B200BF00BFBA4201DD00204A
:105A1000E1E7BA4201D13046DDE72088DFF8B8C0BF
:105A2000DCF800C000EB0C01087980BB088805F1A8
:105A3000080C94441FFA8CF3DFF8A4C0DCF800C013
:105A40008C4508D1DFF890C0DCF800C09C44DFF83A
:105A50009080C8F800C0DFF880C0DCF800C00CEB14
:105A600003014FF0000C81F804C008804D802380B2
:105A7000B1F800C0BCF5205F08D0B1F800C0DFF875
:105A80005880D8F80080C444ACF8023022E0FFE728
:105A900002F11400B8421DD805F10800104483B289
:105AA0000D480068C1180E480068814201D20C48B8
:105AB000016000200871208808804D8023800888BC
:105AC000B0F5205F06D00888DFF80CC0DCF800C015
:105AD0006044438030467EE73400002038000020D8
